:020000040800F2
:1000000030080020ED010008014500080B39000808
:100010006540000899150008254B00080000000005
:100020000000000000000000000000007145000812
:10003000D9150008000000000545000873450008B8
:10004000070200080702000807020008070200086C
:10005000070200080702000807020008070200085C
:100060000702000807020008070200089D150008A3
:10007000070200080702000807020008070200083C
:10008000070200080702000807020008070200082C
:10009000070200080702000807020008070200081C
:1000A000070200080702000807020008070200080C
:1000B00007020008014600080702000807020008BE
:1000C00007020008070200080702000807020008EC
:1000D00007020008070200080702000807020008DC
:1000E00007020008070200080702000807020008CC
:1000F00007020008070200080702000807020008BC
:1001000007020008070200080702000807020008AB
:10011000070200080702000807020008070200089B
:10012000070200080702000807020008070200088B
:1001300000F002F800F04AF80AA090E8000C8244AF
:100140008344AAF10107DA4501D100F03FF8AFF28C
:10015000090EBAE80F0013F0010F18BFFB1A43F0A5
:10016000010318471472000034720000103A24BFD3
:1001700078C878C1FAD8520724BF30C830C144BF0C
:1001800004680C607047000000230024002500264E
:10019000103A28BF78C1FBD8520728BF30C148BFEA
:1001A0000B607047662905F01D84642900F07A8091
:1001B000002070471FB500F0FDFB04000020002167
:1001C00004F0D6FDE0601FBD10B510BD00F0F2FCDC
:1001D0001146FFF7EFFF04F019FD00F010FD03B426
:1001E000FFF7F2FF03BC00F053FD00000948804711
:1001F00009480047FEE7FEE7FEE7FEE7FEE7FEE709
:10020000FEE7FEE7FEE7FEE704480549054A064B20
:1002100070470000FD450008310100083002002051
:100220003008002030040020300400200FB41CB53A
:10023000074B06AA7B4469460090059800F0A1FB95
:100240000020694600F0B0FB1CBC5DF814FB000008
:100250007107000070B5044685690068C10601D5C4
:10026000302600E02026C00707D070BDD4E9012168
:1002700030469047206A401C20626D1EF6D570BD46
:1002800070B5044685690078C00707D170BDD4E910
:10029000012120209047206A401C20626D1EF6D567
:1002A00070BD00002DE9F041064600241068752954
:1002B000314616A510D0AFF30080002802DA404284
:1002C00013A507E031688A0701D512A502E04907A6
:1002D00004D511A5012401E0AFF3008000210A221A
:1002E00006F1240709E0B0FBF2FCB0FBF2F302FBDD
:1002F0001C00303078541846491C0028F3D123469E
:100300002A463046BDE8F04100F0CEB800000000BB
:100310002D0000002B000000200000002DE9F05F00
:10032000894604464FF0000ADFF824B1FB44C0F8C8
:1003300020A02046E168884700287DD0252806D0E7
:10034000D4E901219047206A401C2062F1E7002592
:100350005F462046E16888472028064607DB312EA5
:1003600005D2B81910F8200C08B10543F1E7A80729
:1003700001D525F00405C4F81CA00027C4F818A076
:100380002A2E09D0304604F0FFFB38B304EB87086F
:10039000303EC8F8186019E059F8041B204604EBF9
:1003A00087029161E1688847012F064618D1E0690C
:1003B000002820DA25F020051DE0D8F8180000EB11
:1003C000800006EB40003038C8F818002046E1688D
:1003D0008847064604F0D8FB0028EED1012F0AD04A
:1003E0002E2E08D12046E16888477F1C0646022F42
:1003F00045F02005C4DBA069002803DA404245F03F
:100400000105A061E80701D025F01005A6B1A6F10D
:100410004100192802D8203645F400654A46314685
:10042000204625604D46FFF7BDFE60B1012807D08C
:10043000ED1D25F0070000E007E000F1080978E76E
:1004400005F1040975E730467AE7206ABDE8F09FB8
:10045000A06F00004FF0000200B513469446964688
:10046000203922BFA0E80C50A0E80C50B1F12001C7
:10047000BFF4F7AF090728BFA0E80C5048BF0CC075
:100480005DF804EB890028BF40F8042B08BF7047D3
:1004900048BF20F8022B11F0804F18BF00F8012B45
:1004A00070477047704770472DE9F0470D469946F1
:1004B0009246044600F124080168880604D5E069E4
:1004C00021F01001216000E00120A84201DD471B5E
:1004D00000E00027A1697A1902EB0900081AA0615F
:1004E0002078C00602D42046FFF7B4FE002608E0BC
:1004F000D4E901211AF806009047206A401C761CB6
:1005000020624E45F4DB2078C0060AD52046FFF76E
:10051000A1FE06E0D4E9012130209047206A401C6A
:100520002062381EA7F10107F4DC07E0D4E90121BD
:1005300018F805009047206A401C2062281EA5F18B
:100540000105F3DC2046FFF79BFE2078000602D56C
:100550000220BDE8F0870120FBE770472DE9FF4F3F
:100560000C461E464FF0FF378BB0D2E90001DDF894
:1005700060800A908A46C1F30A5505B93D460021BC
:1005800008464FF00000BAF1000F00F4400005DA11
:1005900000EB80004FF4400101EA50004FEA90590F
:1005A000B9F1010F00DDB9460A9850EA4A000ED0B1
:1005B00044F61050A5F2FF3545432F14B8F1000F53
:1005C0001ED07542291E1EDDC9F100021CE0B8F1E3
:1005D000010F4FF0000001D0302103E0F24305E0AD
:1005E0002154401CB042FBDB304600220021215444
:1005F0000B99C1F80880C1E900200FB0BDE8F08F69
:10060000BD1B6D1CDEE74A4600DA694206A800F011
:100610005BFA06AB93E8070003AB83E8070050469C
:100620000A9900F03CFB8DE80700A0F500501F3848
:1006300000900398002D0ADD42F21F014A4608444B
:10064000002303A90390684600F0A5FD09E0A0F58A
:1006500000504A461F38002303A90390684600F063
:10066000AFFD8DE807000004000C03D04FF0FF3011
:10067000410800E01046B8F1000F03D000220092BC
:1006800015461EE0751E05D400F098F9303262550B
:100690006D1EF9D5B3460122084302D000227F1C0B
:1006A00004E02078302801D100227F1E002A09971B
:1006B00084D01DE0112D07DA00F080F93032625548
:1006C0006D1C50EA0102F5D1084302D00098C8B170
:1006D0000EE00021681E05E0235C625C6354225436
:1006E000401E491C8142F7DBAB46A81B401E099007
:1006F000002004F80B000B98099AC0F80880C0E9A4
:10070000002B7AE711264FF0000857E72DE9F04F4C
:1007100088460446D21D22F0070191B0D1E90001BC
:10072000CDE90A0104F000FA02460B98C00F01D08F
:100730002D2007E02068810701D52B2002E0202131
:1007400001EAC000032A099001D0072A05DB03460D
:100750004146204600F078F90BE12078800601D56B
:10076000E06900E00620B8F1650F814606D0B8F1D7
:10077000660F18D0B8F1670F70D131E00020B9F1E1
:10078000110F009001DB112301E009F101030AAA16
:1007900001A90CA8FFF7E2FEDDE90C70002609F1C3
:1007A0000105834647E001204B4600904FF000478B
:1007B0000AAA01A90CA8FFF7D1FEDDE90DB00C993A
:1007C0005D46002610B909F101000D18B9EB0500CE
:1007D00003D4C0F1FF3609F10105A5EB09002BE0B8
:1007E000B9F1010F01DA4FF001090020B9F1110F41
:1007F0000090484601DD112300E003460AAA01A942
:100800000CA8FFF7ABFEDDE90C704D4600268346D1
:10081000207800070AD4AB4500DA5D4601A8012D17
:1008200004DD411911F8011C302907D04F4502DAC7
:1008300017F1040F04DA012082460FE06D1EEEE787
:10084000002F02DCED1B3E4403E0781CA84200DDD3
:100850007D1CB81B00F1010A4FF00047207800070B
:1008600003D4AA4501DB4FF0FF3A0021B7F1004F56
:100870000DF143088DF8431024D002202B23002FC4
:1008800001DA7F422D230A21021EA0F1010000DCC3
:100890005FB197FBF1FC97FBF1F201FB1C7C174663
:1008A0000CF1300C08F801CDEEE7A8F1010003705F
:1008B0002188090501D5452100E06521A0F1010845
:1008C00000F8011C09980FA9A1EB0807FF1D00B152
:1008D0000120411901EBEA70A1693844081A401E51
:1008E000A0612078C00602D42046FFF7B3FC099827
:1008F00028B1D4E901219047206A401C2062207869
:10090000C00622D52046FFF7A5FC1EE0002E04DB22
:10091000B34502DD01A8805D00E03020D4E901216B
:100920009047206A401C2062761CAAF101005FEA11
:10093000000A0AD100F03EF8C0680168405CD4E9C2
:1009400001219047206A401C2062281EA5F1010564
:10095000DCDC07E0D4E9012118F8010B9047206A9C
:10096000401C2062381EA7F10107F3DC2046FFF788
:1009700087FC032011B041E601694A1C0261087836
:10098000704700B58FB0CDE90131002105910549CF
:100990007944CDE9031011466846FFF7BFFC0FB05C
:1009A00000BD0000E5FFFFFF0A6802F8010B0A60C6
:1009B0007047000000487047F001002030B5B0F1EA
:1009C0000A024FEA900E71F100034EEA817EB0EB0D
:1009D0000E0061EB91014FEA101E4EEA017E10EB12
:1009E0000E0041EB11114FEA102E4EEA016E10EB92
:1009F0000E0041EB11214FEA104E4EEA014E10EB72
:100A00000E0041EB1141401841F100014FEAD000C6
:100A100040EA41704FEAD10110EB80054FEA8104B2
:100A200044EA907444EB01046D1944EB0404521B36
:100A3000A3414FF0000348BF0A3200D530BD401C2F
:100A400041F1000130BD00002DE9F0411F46044690
:100A500003260168072A01F4006004DB08B116A52B
:100A600005E016A503E008B115A500E015A521F0E5
:100A700010002060A069C01EA0610FB1401EA061DF
:100A80002046FFF7E7FB4FB1D4E9012138469047F4
:100A9000206A401C2062C01C206206E0206AFAE73F
:100AA000D4E9012115F8010B9047761EF8D22046B3
:100AB000FFF7E6FBBDE8F0814E414E006E616E002F
:100AC000494E4600696E66002DE9F047814616469C
:100AD0008AB0354878440DC88DE80D003248784416
:100AE000801C03AC0DC884E80D0041F69B3008441F
:100AF000372190FBF1F290FBF1F5A5F1800501FBA8
:100B000012041B3C02D56442012000E00020DFF803
:100B100098A080460027FA44AAF1BE0A0EE0E0073A
:100B20000AD03246684607EB470101230AEB8101F0
:100B300000F046FB8DE8070064107F1C002CEED10E
:100B4000194F7F44AE3F19E0E80715D007EB0410BA
:100B50000DF1180A90E80E008AE80E00C068F04215
:100B600001D1981908903246012306A903A800F084
:100B700027FB03AB83E807006D10641C002DE3D155
:100B80004FF0010332466946B8F1000F03A802D0C6
:100B900000F001FB01E000F013FBC9E90001C9F816
:100BA00008200AB0BDE8F087886800000048704758
:100BB000D00100207546FFF7F9FFAE4605006946F3
:100BC000534620F00700854618B020B5FFF71CFB00
:100BD000BDE820404FF000064FF000074FF000083E
:100BE0004FF0000B21F00701AC46ACE8C009ACE8BF
:100BF000C009ACE8C009ACE8C0098D46704710B523
:100C00000446AFF300802046BDE81040FFF7E7BA86
:100C10004FF0013C50F8042B51F8043B9A4221D18B
:100C2000A2EB0C03934313EACC1317D150F8042B17
:100C300051F8043B9A4215D1A2EB0C03934313EAFB
:100C4000CC130BD150F8042B51F8043B9A4209D134
:100C5000A2EB0C03934313EACC13DBD04FF000005C
:100C6000704700BFD01A01BAB1FA81F101F0180142
:100C700022FA01F0CB40C1F12001DBB2C0B2C01AB0
:100C80002CFA01F3D11A914311EAC311E6D170474E
:100C900001491820ABBEFEE72600020070475FEA5C
:100CA000400C08BF91F0000F4FEA8C234FEAC1229D
:100CB00043EA51514FEA1C5018BF00F5F0404FEA8B
:100CC000300018BF41F000415FEA6C5C00F0298001
:100CD000BCF1FF3F08BF40F080407047130C06BFD7
:100CE00012044FF0100C4FF0000C130E04BF120250
:100CF0000CF1080C130F04BF12010CF1040C930F3C
:100D000004BF92000CF1020CD30F04BF52000CF18F
:100D1000010C11464FF00002A0F11F00A0EB0C00E7
:100D2000704711F0004F08BF704731F000413FF4A9
:100D3000D5AF0B0C06BF09044FF0100C4FF0000CA0
:100D40000B0E04BF09020CF1080C0B0F04BF0901C4
:100D50000CF1040C8B0F04BF89000CF1020CCB0FBB
:100D600004BF49000CF1010CCCF12003A0EB0C00F6
:100D700022FA03F302FA0CF241EA030100F1010046
:100D8000704720F07F4C80EA030023F07F47ACEBF4
:100D9000070303F57C5300F0004003F1FF032DE946
:100DA00080494FEA154B09B44FEA144325EA0B4E2C
:100DB00024EA03480FF2042606EB132749083E787D
:100DC0005FEA320203FB0667C7F5000707FB06F67A
:100DD0004FEA54374FEAD64606F1020607FB066C87
:100DE000CCF1005C4FEA1C472CEA074C07FB06F4E9
:100DF0000CFB06F504EB15464FEA961634BF0020AF
:100E00004FF000404FEAD13706FB07FC4FEA1C4C7D
:100E10000CFB0BF7D21B03FB0CF761EB07010CFB80
:100E20000EF7B0EB074072EB17420CFB08F734BF2C
:100E3000A2EB0742B2EB074261EB17414FEA0C44C9
:100E40004FEA910706FB07FC4FEA1C4C0CFB0BF723
:100E5000B0EBC74072EB573203FB0CF734BFA2EB89
:100E6000C742B2EBC74261EB57310CFB0EF7B0EB58
:100E7000C70072EB57720CFB08F734BFA2EBC70236
:100E8000B2EBC70261EB5771039F4FEA816141EA00
:100E9000921104EBCC044FEAD1374FEA826206FB91
:100EA00007FC42EA90124FEA80604FEA1C4C0CFBB0
:100EB0000BF7D21B03FB0CF761EB07010CFB0EF7E2
:100EC000B0EB074072EB17420CFB08F734BFA2EB04
:100ED0000742B2EB074261EB17414FEA8C554FEAEC
:100EE000910704EB9C2406FB07FC4FEA1C4C0CFB0F
:100EF0000BF7B0EBC74072EB573203FB0CF734BF74
:100F0000A2EBC742B2EBC74261EB57310CFB0EF7C5
:100F1000B0EBC70072EB57720CFB08F734BFA2EBC3
:100F2000C702B2EBC70261EB577115EB4C254FEAD4
:100F3000816141EA92114FEA82624FEAD13742EA77
:100F4000901206FB07FC44F100044FEA80604FEA70
:100F50001C4C0CFB0BF7D21B03FB0CF761EB0701DE
:100F60000CFB0EF7B0EB074072EB17420CFB08F7D7
:100F700034BFA2EB0742B2EB074261EB174115EB1E
:100F80001C154FEA813141EA92414FEA823242EA2E
:100F900090424FEA80304FEA0C7644F1000448EA70
:100FA00003434EEA0B484FF0000EB2EB080C71EB16
:100FB000030724BF624639464EEB0E0E4FF0000B7E
:100FC0000018524149414BEB0B0BB2EB080C71EB93
:100FD00003077BF1000B24BF624639464EEB0E0E31
:100FE0004FF0000B0018524149414BEB0B0BB2EB99
:100FF000080C71EB03077BF1000B24BF62463946F6
:101000004EEB0E0E51EA020718BF46F0010616EB32
:101010000E7655F1000254F1000103D5BDE88901B7
:10102000BDE80088BDE88901BDE80048B619524115
:1010300041EB0101A3F10103704780807F7E7D7C3D
:101040007B7A7978777676757473727171706F6E5A
:101050006E6D6C6C6B6A6A69686867666665646405
:10106000636362616160605F5F5E5E5D5D5C5C5B8F
:101070005B5A5A59595858575756565555555454FE
:10108000535352525251515050504F4F4F4E4E4D5C
:101090004D4D4C4C4C4B4B4B4A4A4A4949494848A8
:1010A00048474747474646464545454444444443E8
:1010B00043434342424242414141002B9C4630D48B
:1010C00077002BD01CB54FEA370703B44FF0100060
:1010D0004FF01001BAF1000F06D0BCF1000FDCBFD9
:1010E00040F0080040F008014FF000000FBCBDE8E0
:1010F00010400BF1010BBBF1010F08BF5FEA1707AE
:1011000022BF12F1010211F101014FF0004143F140
:10111000000300F0004043EA00007047F9D357088D
:10112000D0E746EA064613F1400F4FEA16461FDDA8
:1011300013F1200FDFBF16430A46002120335B4224
:10114000BED0C3F1200746EA064602FA07F74FEA87
:10115000164646EA0706C3F1200722FA03F201FA0F
:1011600007F721FA03F14FF0000342EA0702A7E76D
:1011700046EA020646EA06464FEA164646EA0106EF
:10118000BCBF46EA0646360C4FF000034FF00002A3
:101190004FF0000194E72DE9804C9A46934670B4D5
:1011A00091E8380007C831EA400C48BF34EA430CE4
:1011B00003D5FFF7E6FDFFF780FFF0BCBDE8008C2C
:1011C0002DE9804C9A46934670B491E8380007C8E0
:1011D00010F0804F08BF13F0804F03D100F005F8E6
:1011E000FFF76BFFF0BCBDE8008C20F07F4780EA82
:1011F000030023F07F4C07EB0C03A3F57C5300F0B6
:101200000040A3F1FE0392F0000F00F0B38095F0D0
:10121000000F00F077802DE901494FEA11404FEAB5
:10122000144621EA004800FB06FC24EA064708FBB6
:1012300006F607FB08F800FB07F718EB06484CEB2F
:10124000164C4FEA124B18EB07484FEA15464CEB89
:10125000174022EA0B4E0BFB06FC25EA06470EFB65
:1012600006F607FB0EFE0BFB07F71EEB064E4CEBDC
:10127000164C4FF000061EEB074E4CEB174B18EBCD
:101280000B0840F1000018EB0E0B58EB000840F182
:1012900000008F1A4FF000013CBFC943661B14BF0A
:1012A000B5EB040C00213CBFC943F61B4FEA1744C1
:1012B0004EEA8E0E27EA04454FEA1C4704FB0762FC
:1012C0002CEA074C05FB07F70CFB05F604FB0CFCAE
:1012D00016EB074642EB174216EB0C4642EB1C425C
:1012E0001BEB060658EB0202414146EA9E0601D579
:1012F000BDE80189B619524141EB0101A3F1010397
:10130000BDE801894FEA14454FEA114724EA054632
:1013100021EA074C05FB07F406FB07F70CFB06F177
:1013200005FB0CFC11EB074144EB17444FEA124755
:1013300011EB0C4144EB1C4422EA074C05FB07F27D
:1013400006FB07F70CFB06F605FB0CFC16EB074645
:1013500042EB174216EB0C4642EB1C456A1854F15F
:10136000000148BF7047B619524141EB0101A3F19A
:101370000103704795F0000F37D04FEA11424FEA52
:10138000144721EA024624EA074C02FB07F106FB58
:1013900007F70CFB06F402FB0CFC14EB074441EBD3
:1013A00017414FEA154714EB0C4441EB1C4125EA69
:1013B000074C02FB07F506FB07F70CFB06F602FBE2
:1013C0000CFC16EB074645EB174516EB0C4645EBB8
:1013D0001C42121951F1000148BF7047B619524121
:1013E00041EB0101A3F1010370474FEA14454FEAB5
:1013F000114724EA054621EA074C05FB07F106FBE5
:1014000007F70CFB06F24FF0000605FB0CFC12EB95
:10141000074241EB174112EB0C4251EB1C4148BF14
:101420007047921841EB0101A3F10103704770B5B9
:10143000044600252068806800F0010018B3206889
:10144000806820F001002168886001F0A1F905465C
:1014500013E001F09DF9401B02280ED92068806836
:1014600000F0010048B1A06A40F01000A062E06AFC
:1014700040F00100E062012070BD2068806800F04B
:1014800001000028E5D10020F6E770B505466C6A3A
:10149000A06A00F05000E0B9A06A40F40070A062B9
:1014A0002068806800F46020B0F5602F0DD1207BAB
:1014B00058B9A06A20F48070A062A06A00F480503D
:1014C00018B9A06A40F00100A062204600F0AEFA10
:1014D00003E0206A016B2846884770BD70B5054659
:1014E0006C6AA06A40F04000A062E06A40F004002C
:1014F000E062204600F09CFA70BD70B50446656A53
:10150000284600F094FA70BD38B504460025002046
:1015100000902068806800F0010078BB2068806837
:1015200040F0010021688860194800681949B0FB43
:10153000F1F0009002E00098401E00900098002812
:10154000F9D101F025F9054619E001F021F9401B18
:10155000022814D92068806800F0010078B9A06AD8
:1015600040F01000A062E06A40F00100E06200BFBD
:10157000002084F8240000BF012038BD05E0206869
:10158000806800F001000028DFD00020F5E70000AF
:10159000B000002040420F0000BFFEE710B5024837
:1015A00000F0E8FC10BD00003001002030B590F8DC
:1015B00040500124AC40C56B6C60046863604468B3
:1015C000102C04D10468A2600468E16003E00468A0
:1015D000A1600468E26030BD704772B600BFFEE7EC
:1015E00010B502460020002304E032F811402044E8
:1015F0005C1CA3B20F2BF8DB0F24B0FBF4F010BD82
:101600002DE9F84F0746884693469A46DDF828901C
:101610000097B3E099F8000080283DDA99F800605F
:101620000D2E05D1009F08F110001FFA80F830E060
:10163000202E03DDA6F1200086B200E00026002463
:1016400022E000251CE004EB06105049085C8021D4
:101650002941084040B108EB040291B27A1990B2D6
:101660005A4600F097F809E0D34507D008EB04028A
:1016700091B27A1990B2524600F08CF8681CC5B24B
:10168000082DE0DB601CC4B2102CDADB07F1080087
:1016900087B209F1010971E0002668E006EB061047
:1016A0003B4911F8100099F8001088425DD106EB13
:1016B0000610374901EB4000407899F80110884244
:1016C00053D100244FE0002520E006EB06103049FE
:1016D00001EB4000801C10F81410802028410140CC
:1016E00041B108EB040291B27A1990B25A4600F067
:1016F00051F809E0D34507D008EB040291B27A19FA
:1017000090B2524600F046F8681CC5B2082DDCDBEA
:10171000002524E006EB06101D4901EB4000801C6B
:10172000012101EB4401405C80212941084048B17E
:1017300008EB040291B27A19083290B25A4600F0CE
:1017400029F80AE0D34508D008EB040291B27A19CF
:10175000083290B2524600F01DF8681CC5B2082D40
:10176000D8DB601CC4B2102CADDB701C86B2322EEC
:1017700094DB09F1020907F1100087B299F8000023
:1017800000287FF447AFBDE8F88F00004C640008E4
:10179000BE71000870B504460D461646681C83B23B
:1017A000601C82B22946204602F022FB304602F03D
:1017B000D3F970BDF8B5044600260020009000BFA4
:1017C00094F82400012801D10220F8BD012084F8FA
:1017D000240000BF2046FFF72AFE0646002E6CD1EB
:1017E000A06A20F4885040F00200A062022001F0BC
:1017F000A7F835490968B1FBF0F04000009002E01D
:101800000098401E009000980028F9D12046FFF76C
:101810007BFE2068806840F008002168886000F046
:10182000B7FF054616E000F0B3FF401B0A2811D9A8
:101830002068806800F0080060B1A06A20F0020013
:1018400040F01000A06200BF002084F8240000BF18
:101850000120BAE72068806800F008000028E2D183
:101860002068806840F004002168886000F090FFE4
:10187000054616E000F08CFF401B0A2811D92068AD
:10188000806800F0040060B1A06A20F0020040F01F
:101890001000A06200BF002084F8240000BF0120D7
:1018A00093E72068806800F004000028E2D1A06A75
:1018B00020F0020040F00100A06200BF002084F888
:1018C000240000BF304680E7B000002038B5024653
:1018D00000230020009000BF92F82400012801D1CD
:1018E000022038BD012082F8240000BF4868072884
:1018F00012D21068406B0C79641E04EB84051F241F
:10190000AC40A0430D796D1E05EB85050C68AC401D
:1019100020431468606327E048680D2812D21068DD
:10192000006B0C79E41F04EB84051F24AC40A0433A
:101930000D79ED1F05EB85050C68AC40204314685C
:10194000206311E01068C06A0C790D3C04EB84053B
:101950001F24AC40A0430D790D3D05EB85050C68B7
:10196000AC4020431468E06208680A2812D310686B
:10197000C0680C780A3C04EB44050724AC40A04343
:101980000D780A3D05EB45058C68AC402043146892
:10199000E0600FE0106800690C7804EB4405072450
:1019A000AC40A0430D7805EB45058C68AC40204366
:1019B000146820610868102802D00868112827D10F
:1019C000174C1068A0421ED11068806800F4000017
:1019D000F0B91068806840F400001468A0600868DE
:1019E000102815D10F4800680F4CB0FBF4F000EB45
:1019F00080004000009002E00098401E0090009897
:101A00000028F9D104E0906A40F0200090620123A0
:101A100000BF002082F8240000BF184661E70000E4
:101A200000240140B000002040420F007047704782
:101A3000704700002DE9F0410446002700250026EC
:101A4000A84614B90120BDE8F081A06810B1207D3E
:101A500000B100BFA06A30B90020E06284F8240021
:101A6000204600F097F82046FFF7E1FC0746A06A01
:101A700000F01000002873D1002F7ED1A06A20F45E
:101A8000885040F00200A0623F4AD4E90001904231
:101A900008D1E069B0F5402F02D14FF4002002E0F8
:101AA000E06900E0E0690143207B41EA4000064331
:101AB000A068B0F5807F02D0A068012802D14FF461
:101AC000807000E000200543207D012811D1207B9B
:101AD00038B9A069401E4FF4006141EA4030054327
:101AE00007E0A06A40F02000A062E06A40F0010038
:101AF000E0622068406820F469402843216848601B
:101B00002068806821490840304321688860A068C7
:101B1000B0F5807F02D0A068012802D14FF4807018
:101B200000E00020B0F5807F03D1208A401E4FEAFC
:101B300000582068C06A20F4700040EA080021685C
:101B4000C8622068806812490840B04209D100206C
:101B5000E062A06A20F0020040F00100A06211E003
:101B60000BE0A06A20F0020040F01000A062E06AE2
:101B700040F00100E062012704E0A06A40F010009C
:101B8000A062012738465EE7003C0140FDF7E1FF17
:101B9000FE0E1FFF10B586B0044600200290039091
:101BA000049005902249206888423ED100BF214818
:101BB000806940F400701F4988610846806900F41C
:101BC0000070019000BF00BF00BF0846806940F070
:101BD000040088610846806900F00400019000BF9D
:101BE00000BF0F2002900320039002A9124800F0CA
:101BF00021FC12481249086000204860002110486A
:101C000081608021C160490001618900416120211A
:101C100081610902C16100F079FB08B1FFF7DDFCC9
:101C200000BF07482062446200BF06B010BD00003C
:101C3000002401400010024000080140080002405A
:101C4000300100202DE9F04104460D4616460027DC
:101C500057492068884203D056492068884205D1F8
:101C60005348001D006800F4702000E000200028A8
:101C70007ED100BF94F82400012802D10220BDE8E3
:101C8000F081012084F8240000BF2046FFF73CFCCF
:101C90000746002F6DD1A06A40F60161884340F4E9
:101CA0008070A06243492068884209D14048001DE5
:101CB000006800F4702008B9012002E0002000E074
:101CC000012078B1A06A20F48010A06220684068EA
:101CD00000F4806000B3A06A20F4005040F480500B
:101CE000A06219E0A06A40F48010A0623049206828
:101CF000884203D02F492068884205D12C48001D16
:101D0000006800F4806000E0002028B1A06A20F4A0
:101D1000005040F48050A062A06A00F4805020B1CE
:101D2000E06A20F00600E06201E00020E06200BF0F
:101D3000002084F8240000BF1F48216A88621F48E1
:101D4000216AC8621E48216A08636FF00200216898
:101D500008602068806840F480702168886022688C
:101D600002F14C0133462A46206A00F015FB01E0DF
:101D70001AE014E02068806800F46020B0F5602F5D
:101D800006D12068806840F4A000216888600CE0DB
:101D90002068806840F480102168886005E000BFFA
:101DA000002084F8240000E00127384667E700009F
:101DB00000240140002801408B140008FB14000897
:101DC000DD140008F0B5034600BF5879012801D1A1
:101DD0000220F0BD0120587100BF02201871186860
:101DE000046802F0100640F6FE70B0408443D1E96A
:101DF000000640EA060502F0100005FA00F0044370
:101E0000186804601868006802F01007C026BE4019
:101E1000B0431E6830600120187100BF0020587167
:101E200000BF00BFD5E7024611B91368D86A01E0C8
:101E30001368186B704710B504460CB9012010BD2B
:101E4000207920B900206071204600F009F80220B6
:101E5000207100202061012020710020EFE70000A8
:101E600010B586B0044600200290039004900590BF
:101E700014492068884222D100BF1348C06940F04D
:101E800000501149C8610846C06900F00050019037
:101E900000BF00BF00BF0846806940F004008861B1
:101EA0000846806900F00400019000BF00BF1020C8
:101EB00002900320039002A9044800F0BBFA06B088
:101EC00010BD0000007400400010024000080140F6
:101ED00038B50446002000902068009029B902F12E
:101EE0000800009D2844009004E002F11400009DC9
:101EF0002844009000980360002038BD10B50246C9
:101F000000BF5079012801D1022010BD012050717D
:101F100000BF022010711068006801F01004012356
:101F2000A34018431368186061B91068006800F096
:101F30003C003C2816D11068406840F0010013684E
:101F400058600FE01068006800F4701301F010048E
:101F50003C20A040834205D11068406840F0020058
:101F6000136858600120107100BF0020507100BF3D
:101F700000BFCAE770B50446E06B056820680668D4
:101F800094F84010042088402840002875D006F0BE
:101F900004000028FAD02068006800F0200028B96A
:101FA0002068006820F0040021680860D549206896
:101FB000884254D9D34978392068884201D1042015
:101FC00049E0D04964392068884201D1402042E08C
:101FD000CC4950392068884201D100153BE0C949FD
:101FE0003C392068884202D14FF4804033E0C54933
:101FF00028392068884202D14FF480202BE0C14963
:1020000014392068884202D14FF4800023E0BD4992
:102010002068884201D1C0041DE0BB492068884285
:1020200001D1042017E0B84914312068884201D159
:10203000402010E0B44928312068884201D10015C1
:1020400009E0B1493C312068884202D14FF4804018
:1020500001E04FF48020AC49091F086054E0A94911
:1020600078392068884201D104204AE0A5496439C2
:102070002068884202D1402043E04CE0A149503919
:102080002068884201D100153BE09E493C39206818
:10209000884202D14FF4804033E09A4928392068C1
:1020A000884202D14FF480202BE0964914392068F1
:1020B000884202D14FF4800023E092492068884290
:1020C00001D1C0041DE090492068884201D104205C
:1020D00017E08D4914312068884201D1402010E07A
:1020E000894928312068884201D1001509E08649D4
:1020F0003C312068884202D14FF4804001E04FF427
:102100008020804980394860E06A002802D020465B
:10211000E16A8847F4E094F84010022088402840A3
:10212000002871D006F002000028FAD0206800686C
:1021300000F0200040B92068006820F00A00216803
:102140000860012084F821006E492068884254D933
:102150006C4978392068884201D1022049E06949F8
:1021600064392068884201D1202042E06549503915
:102170002068884201D140153BE062493C39206823
:10218000884202D14FF4005033E05E49283920687C
:10219000884202D14FF400302BE05A4914392068AC
:1021A000884202D14FF4001023E05649206888424B
:1021B00001D180041DE054492068884201D10220E9
:1021C00017E0514914312068884201D1202010E0E5
:1021D0004D4928312068884201D1401509E04A491B
:1021E0003C312068884202D14FF4005001E04FF4A6
:1021F00000304549091F086054E042497839206899
:10220000884202D102204AE057E03E496439206802
:10221000884201D1202042E03A4950392068884262
:1022200001D140153BE037493C392068884202D152
:102230004FF4005033E0334928392068884202D1F6
:102240004FF400302BE02F4914392068884202D126
:102250004FF4001023E02B492068884201D180040C
:102260001DE029492068884201D1022017E0264953
:1022700014312068884201D1202010E02249283101
:102280002068884201D1401509E01F493C3120688F
:10229000884202D14FF4005001E04FF40030194958
:1022A0008039486000BF002084F8200000BFA06A89
:1022B00030B32046A16A884722E094F840100820F5
:1022C00088402840E0B106F00800C8B120680068E6
:1022D00020F00E002168086094F84010012088402A
:1022E000E16B48600120A06384F8210000BF00205A
:1022F00084F8200000BF206B10B12046216B884776
:1023000070BD000080000240080402400146002227
:1023100009B9012070471E4B086898420BD21D4B2B
:102320000868C01A1423B0FBF3F080000864194851
:102330000838C8630AE0164B0868C01A1423B0FBBB
:10234000F3F08000086412480838C863022081F85E
:1023500021000868026843F6F0708243D1E9010366
:102360001843CB6818430B6918434B6918438B69B2
:102370001843CB6918430243086802600020886351
:10238000012081F82100002081F8200000BFC1E772
:1023900008040240080002402DE9F04104460D46C1
:1023A00016461F464FF0000800BF94F82000012891
:1023B00002D10220BDE8F081012084F8200000BF96
:1023C00094F8210001282CD1022084F8210000205B
:1023D000A0632068006820F00100216808603B4687
:1023E000324629462046FFF7E1F8E06A30B120681E
:1023F000006840F00E00216808600BE0206800686B
:1024000020F00400216808602068006840F00A009D
:10241000216808602068006840F0010021680860B9
:1024200006E000BF002084F8200000BF4FF0020843
:102430004046BFE72DE9F847024600239C467BE172
:102440004FF0010808FA03F4D1F8008008EA04000C
:10245000A0427DD1DFF8F4A2D1F80480A8EB0A09EC
:10246000D0453AD014DCB8F1030F50D009DCB8F1F4
:10247000000F31D0B8F1010F1CD0B8F1020F49D1D3
:1024800020E0B8F1110F18D0B8F1120F42D11EE0C0
:10249000B9F5881F25D006DCB9F5803F20D0B9F505
:1024A000801F37D11AE0B9F5001F18D0B9F5041F05
:1024B00030D117E0D1F80CC02DE0D1F80C8008F134
:1024C000040C28E0D1F80C8008F1080C23E0D1F8C6
:1024D0000C8008F10C0C1EE000BF00BF00BF00BF65
:1024E00000BF00BFD1F80880B8F1000F02D14FF053
:1024F000040C0BE0D1F80880B8F1010F03D14FF0C4
:10250000080C146102E04FF0080C546103E04FF036
:10251000000C00E000BF00BFFF2801D8904601E09A
:1025200002F104084646FF2802D84FEA830803E078
:10253000A3F108084FEA88084746D6F800804FF014
:102540000F0909FA07F928EA09080CFA07F900E067
:102550007AE048EA0908C6F80080D1F8048008F05B
:102560008058B8F1805F6FD100BFDFF8E481D8F800
:10257000188048F00108DFF8D891C9F81880C846DB
:10258000D8F8188008F00108CDF8008000BF00BF1F
:102590004FEAB9384FEA930958F829504FEA83783F
:1025A0004FEA18794FF00F0808FA09F825EA0805EC
:1025B000DFF8A081424502D14FF0000824E0DFF8A7
:1025C0009881424502D14FF001081DE0DFF88C816F
:1025D000424502D14FF0020816E0DFF884814245FF
:1025E00002D14FF003080FE0DFF87881424502D1B5
:1025F0004FF0040808E0DFF87081424502D14FF047
:10260000050801E04FF006084FEA83794FEA19798F
:1026100008FA09F848EA0505DFF850814FEA9309FE
:1026200048F82950D1F8048008F48038B8F5803F84
:102630000BD1DFF83C81D8F8008048EA0008DFF8C9
:102640003091C9F800800AE075E0DFF82481D8F8FD
:10265000008028EA0008DFF81891C9F80080D1F856
:10266000048008F40038B8F5003F0ED1DFF800818F
:1026700008F10408D8F8008048EA0008DFF8F09074
:1026800009F10409C9F800800DE0DFF8E48008F1E1
:102690000408D8F8008028EA0008DFF8D49009F18F
:1026A0000409C9F80080D1F8048008F48018B8F54E
:1026B000801F0ED1DFF8B88008F10808D8F8008034
:1026C00048EA0008DFF8A89009F10809C9F8008075
:1026D0000DE0DFF89C8008F10808D8F8008028EAAF
:1026E0000008DFF88C9009F10809C9F80080D1F8DA
:1026F000048008F40018B8F5001F0ED1DFF87080D0
:1027000008F10C08D8F8008048EA0008DFF860906B
:1027100009F10C09C9F800800DE0DFF8548008F1D8
:102720000C08D8F8008028EA0008DFF8449009F186
:102730000C09C9F800805B1CD1F8008028FA03F866
:10274000B8F1000F7FF47CAEBDE8F88700001110EF
:102750000010024000080140000C01400010014040
:102760000014014000180140001C01400800014015
:1027700000040140024693680B400BB1012000E0C9
:10278000002070470AB1016101E00B04036170474A
:102790000148006870470000A4000020034800685A
:1027A000034909780844014908607047A4000020E3
:1027B000AC00002010B50848006840F01000064941
:1027C0000860032000F0A8F80F2000F007F800F0E0
:1027D0002BF8002010BD00000020024070B5044618
:1027E0000E4800784FF47A71B1FBF0F00C4909689B
:1027F000B1FBF0F5284600F041FD08B1012070BDA5
:10280000102C07D200222146501E00F047F8054840
:10281000046001E00120F2E70020F0E7AC000020B6
:10282000B0000020A800002008B500BF1148806952
:1028300040F001000F4988610846806900F00100FE
:10284000009000BF00BF00BF0846C06940F0805044
:10285000C8610846C06900F08050009000BF00BF0A
:1028600000BF0549486820F0E06040F00070486013
:1028700000BF08BD001002400000014001460846AC
:10288000002809DB00F01F0301229A4043099B0046
:1028900003F1E023C3F8002100BF70472DE9F05F8A
:1028A00080460D461646002702F052F90746394683
:1028B0002A46334601F00700C0F1070ABAF1040FB7
:1028C00002D94FF0040A01E0C0F1070AD14600F135
:1028D000040ABAF1070F02D24FF0000A01E0A0F19A
:1028E000030AD4464FF0010A0AFA09FAAAF1010ACA
:1028F0000AEA020A0AFA0CFA4FF0010B0BFA0CFB77
:10290000ABF1010B0BEA030B4AEA0B0421464046EC
:1029100002F026F9BDE8F09F00BF00F00702064B69
:1029200019684FF6FF031940044B0B4343EA022199
:10293000014B196000BF70470CED00E00000FA0584
:102940002DE9F04385B0064642A30FCB01AC0FC47E
:1029500044A0006800904FF00008002500270024E4
:10296000A146042E36D004DC012E3BD0022E6BD1C2
:102970005FE0082E32D0102E66D13B4844680068D4
:1029800000F0807000B301A8C4F38341475C04F4F5
:10299000803070B134484068C0F340401DF800807A
:1029A00004F4803040B13148B0FBF8F000FB07F58B
:1029B00002E02F4807FB00F52B48406800F4800038
:1029C000B0F5800F01D1A94603E068000321B0FBF8
:1029D000F1F93AE000F0C2F9814636E000F0BEF9C4
:1029E000814632E02048046A04F44070B0F5807FEC
:1029F00005D104F0020010B14FF4004918E004F4CE
:102A00004070B0F5007F07D11748406A00F002001F
:102A100010B149F640490BE004F44070B0F5407F36
:102A200006D11148006800F4003008B14FF2244983
:102A30000BE000F083F90C494968C1F38131491C6E
:102A40004900B0FBF1F900E000BF00BF484605B007
:102A5000BDE8F08302030405060708090A0B0C0D04
:102A60000E0F1010010200000010024000127A0048
:102A700000093D00F8B5044600260025207800F046
:102A8000010000286BD000274348C06900F0805047
:102A900070B900BF4048C06940F080503E49C861ED
:102AA0000846C06900F08050009000BF00BF0127B9
:102AB0003A48006800F48070B0B93848006840F4C3
:102AC000807036490860FFF763FE064606E0FFF7B0
:102AD0005FFE801B642801D90320F8BD2F480068E1
:102AE00000F480700028F2D02B48006A00F4407592
:102AF0002DB3A08800F44070A84220D02648006A78
:102B000020F4407501202649086000200860224812
:102B1000056205F0010090B1FFF73AFE064608E0B5
:102B2000FFF736FE801B41F28831884201D903202D
:102B3000D3E71948006A00F002000028F0D01648D8
:102B4000006A20F440706168084313490862012F4D
:102B500004D10846C06920F08050C86100BF2078C9
:102B600000F00200022807D10B48406820F44040E2
:102B7000A168084308494860207800F01000102838
:102B800007D10548406820F4800061690843024984
:102B900048600020A1E700000010024000700040E3
:102BA0004004424270B504460D460CB9012070BD88
:102BB0005A48006800F00700A8420ED25748006843
:102BC00020F007002843554908600846006800F0D7
:102BD0000700A84201D00120E9E7207800F00200B8
:102BE00002281DD1207800F00400042805D14C48AB
:102BF000406840F4E0604A494860207800F00800EE
:102C0000082805D14648406840F46050444948606F
:102C10004348406820F0F000A168084340494860FC
:102C2000207800F0010078B36068012806D13C48A4
:102C3000006800F4003090B90120B8E7606802280D
:102C400006D13748006800F0007040B90120AEE7B7
:102C50003348006800F0020008B90120A7E73048B7
:102C6000406820F00300616808432D494860FFF781
:102C70008FFD064609E0FFF78BFD801B41F288318E
:102C8000884202D9032092E707E02548406800F017
:102C90000C006168B0EB810FEDD12048006800F0B6
:102CA0000700A8420ED91D48006820F007002843FD
:102CB0001A4908600846006800F00700A84201D0E1
:102CC000012074E7207800F00400042807D114489C
:102CD000406820F4E060E1680843114948602078CA
:102CE00000F00800082808D10D48406820F4605022
:102CF000216940EAC1000A49486000F02FF80849FC
:102D00004968C1F30311074A515CC840064908608D
:102D100006480068FFF762FD002048E700200240F7
:102D200000100240B8720008B0000020A800002087
:102D30000148006870470000B000002000B5FFF7B0
:102D4000F7FF04494968C1F3C221034A515CC840F6
:102D500000BD000000100240C8720008F0B585B048
:102D60000FF26C0C9CE8E01001A8A0E8E0101CA594
:102D70002D68009500210022002300240020194D19
:102D8000696801F00C05F5B1042D02D0082D19D1A8
:102D900001E0154819E001ADC1F38346AC5D01F4D3
:102DA000803555B10F4D6D68C5F340451DF80520C0
:102DB0000D4D6543B5FBF2F302E00C4D04FB05F34A
:102DC000184602E000BF084800BF00BF05B0F0BDD4
:102DD00002030405060708090A0B0C0D0E0F10105C
:102DE000010200000010024000127A0000093D00BC
:102DF000F8B504460CB90120F8BD207800F00100B8
:102E0000002878D0F848406800F00C0004280CD066
:102E1000F548406800F00C00082811D1F2484068DD
:102E200000F48030B0F5803F0AD1EF48006800F42C
:102E3000003000285FD0606800285CD10120DBE70B
:102E400000BF6068B0F5803F06D1E748006840F4F5
:102E50008030E549086028E0606858B9E2480068B9
:102E600020F48030E04908600846006820F48020A3
:102E700008601AE06068B0F5A02F0BD1DA4800684E
:102E800040F48020D84908600846006840F480304B
:102E900008600AE0D448006820F48030D249086015
:102EA0000846006820F48020086000BF606888B190
:102EB000FFF76EFC054606E0FFF76AFC401B64283E
:102EC00001D9032098E7C848006800F400300028C2
:102ED000F2D010E0FFF75CFC054606E0FFF758FC77
:102EE000401B642801D9032086E7BF48006800F42E
:102EF00000300028F2D1207800F00200022857D1DB
:102F0000B948406800F00C0050B1B748406800F084
:102F10000C00082818D1B448406800F4803098B9F3
:102F2000B148006800F0020020B12069012801D0FA
:102F3000012061E7AC48006820F0F800616940EAD0
:102F4000C100A949086033E02069E8B10120A74920
:102F50000860FFF71DFC054606E0FFF719FC401B63
:102F6000022801D9032047E79F48006800F00200CB
:102F70000028F2D09C48006820F0F800616940EA1F
:102F8000C1009949086013E0002098490860FFF7E4
:102F9000FFFB054606E0FFF7FBFB401B022801D9BB
:102FA000032029E79048006800F002000028F2D1D1
:102FB000207800F0080008282DD1A069B8B10120C0
:102FC0008B490860FFF7E4FB054606E0FFF7E0FBEE
:102FD000401B022801D903200EE78348406A00F015
:102FE00002000028F2D0012001F08EFA13E0002048
:102FF0007F490860FFF7CCFB054606E0FFF7C8FBFA
:10300000401B022801D90320F6E67748406A00F009
:1030100002000028F2D1207800F00400042873D1C7
:1030200000277148C06900F0805070B900BF6E4839
:10303000C06940F080506C49C8610846C06900F022
:103040008050009000BF00BF01276A48006800F46C
:103050008070B0B96748006840F4807065490860C6
:10306000FFF796FB054606E0FFF792FB401B64283E
:1030700001D90320C0E65F48006800F48070002892
:10308000F2D000BFE068012806D15748006A40F03E
:1030900001005549086227E0E06858B95248006AC3
:1030A00020F00100504908620846006A20F0040040
:1030B000086219E0E06805280BD14B48006A40F02F
:1030C0000400494908620846006A40F001000862AD
:1030D0000AE04548006A20F00100434908620846BA
:1030E000006A20F00400086200BFE068A0B1FFF7AA
:1030F0004FFB054609E0FFF74BFB401B41F28831CF
:10310000884202D9032077E622E03748006A00F0BF
:1031100002000028EFD012E0FFF73AFB054608E076
:10312000FFF736FB401B41F28831884201D903206A
:1031300062E62D48006A00F002000028F0D1012F5D
:1031400005D12948C06920F080502749C86100BFD7
:10315000E069C8B32448406800F00C00082860D03B
:10316000E069022848D1002020490866FFF710FBDB
:10317000054606E0FFF70CFB401B022801D903209F
:103180003AE61948006800F000700028F2D1206A81
:10319000B0F5803F07D11448406820F40030A168A2
:1031A000084311494860D4E9080108430E494968B9
:1031B00021F4741108430C49486001200B4908664A
:1031C000FFF7E6FA054607E03DE0FFF7E1FA401BAE
:1031D000022801D903200FE60348006800F00070C0
:1031E0000028F2D02FE00000001002400000424210
:1031F0008004424200700040002014490866FFF736
:10320000C7FA054606E0FFF7C3FA401B022801D9BA
:103210000320F1E50E48006800F000700028F2D1AC
:1032200011E0E069012800D1E6E50948466806F4A6
:103230008031206A814204D106F47011606A8142B3
:1032400001D00120D8E50020D6E500000000424270
:1032500000100240042808D14FF0E021096941F034
:1032600004014FF0E022116107E04FF0E02109690D
:1032700021F004014FF0E0221161704770B504465F
:103280002546681EB0F1807F01D301200FE0681E43
:103290004FF0E02148610F214FF0FF3001F060FC5A
:1032A00000204FF0E021886107200861002070BDF8
:1032B0007047704730B502460B4600BF92F83C009D
:1032C000012801D1022030BD012082F83C0000BF5E
:1032D000022082F83D00106844681068816824F07C
:1032E00070041868044310684460144D1068A842C4
:1032F00013D0134D1068A8420FD01068B0F1804F62
:103300000BD0104D1068A84207D00F4D1068A8428E
:1033100003D00E4D1068A84205D121F080015868F5
:10332000014310688160012082F83D0000BF002049
:1033300082F83C0000BF00BFC5E70000002C014040
:10334000003401400004004000080040000C004030
:1033500010B504460CB9012010BD94F83D0028B901
:10336000002084F83C00204600F026F8022084F873
:103370003D00211D206801F04BF9012084F8460032
:1033800000BF84F83E0001213F2001554020015537
:103390004120015500BF00BF012084F842004320B6
:1033A0000155442001554520015500BF012084F8F6
:1033B0003D000020D0E7000038B504460D492068E4
:1033C000884215D100BF0C48C06940F002000A498C
:1033D000C8610846C06900F00200009000BF00BF4D
:1033E000002206211D20FFF759FA1D20FFF746FA9B
:1033F00038BD00000004004000100240014691F872
:103400003D00012801D001207047022081F83D00D5
:103410000868C06840F001000B68D860164B086867
:10342000984213D0154B086898420FD00868B0F145
:10343000804F0BD0124B0868984207D0114B086898
:10344000984203D0104B086898420CD108688068F5
:1034500000F00702062A0CD00868006840F001005E
:103460000B68186005E00868006840F001000B6810
:1034700018600020C8E70000002C01400034014023
:103480000004004000080040000C00402DE9F0411D
:1034900004460D4600BF94F83C00012802D10220EA
:1034A000BDE8F081012084F83C0000BF022084F8D0
:1034B0003D002068866826F0770626F47F4620685F
:1034C00086602868502833D00CDC202850D004DCDB
:1034D00000284BD0102851D149E0302849D040284D
:1034E0004CD139E060282DD0702807D0B0F5805F2E
:1034F00003D0B0F5005F41D10DE040E0D5E9021303
:103500006A68206801F0D2F82068866846F077067D
:103510002068866033E0D5E902136A68206801F00C
:10352000C5F82068806840F480402168886026E003
:10353000EA686968206801F0A9F95021206801F063
:10354000C0F81CE0EA686968206801F0B2F96021FF
:10355000206801F0B6F812E0EA686968206801F0B6
:1035600095F94021206801F0ACF808E000BF00BFE9
:1035700000BF2968206801F0A4F800E000BF00BF88
:10358000012084F83D0000BF002084F83C0000BF0B
:1035900000BF85E7704710B5044620680069C0F396
:1035A0004000D8B12068C068C0F34000B0B16FF0EF
:1035B000020021680861012020772068806900F0FE
:1035C000030018B12046FFF7E5FF05E0204600F0B4
:1035D000D9F8204600F089F900202077206800699A
:1035E000C0F38000D8B12068C068C0F38000B0B1DB
:1035F0006FF004002168086102202077206880694C
:1036000000F4407018B12046FFF7C4FF05E02046E3
:1036100000F0B8F8204600F068F900202077206814
:103620000069C0F3C000D8B12068C068C0F3C00012
:10363000B0B16FF00800216808610420207720688D
:10364000C06900F0030018B12046FFF7A3FF05E0B2
:10365000204600F097F8204600F047F90020207738
:1036600020680069C0F30010D8B12068C068C0F3BA
:103670000010B0B16FF010002168086108202077B9
:103680002068C06900F4407018B12046FFF782FF3F
:1036900005E0204600F076F8204600F026F90020EC
:1036A00020772068006900F0010058B12068C068E8
:1036B00000F0010030B16FF0010021680861204680
:1036C00000F014F920680069C0F3C01058B12068F8
:1036D000C068C0F3C01030B16FF08000216808618D
:1036E0002046FFF7E5FD20680069C0F3801058B15F
:1036F0002068C068C0F3801030B16FF040002168CE
:103700000861204600F000F920680069C0F340100D
:1037100058B12068C068C0F3401030B16FF020008D
:10372000216808612046FFF7C4FD10BD10B586B0C2
:103730000446002002900390049005900E492068F2
:10374000884216D100BF0D48806940F004000B4943
:1037500088610846806900F00400019000BF00BF46
:103760004020029002200390059002A90448FEF731
:1037700061FE06B010BD00000004004000100240D1
:1037800000080140704770B504460D46164600BF5C
:1037900094F83C00012801D1022070BD012084F87A
:1037A0003C0000BF36B1042E1BD0082E31D00C2EA9
:1037B0005ED145E02946206800F08CFF20688069D2
:1037C00040F00800216888612068806920F00400CA
:1037D00021688861206880692969084321688861B7
:1037E00047E02946206800F0ADFF2068806940F47A
:1037F0000060216888612068806920F48060216809
:10380000886120688069296940EA0120216888610F
:103810002FE02946206800F0D3FF2068C06940F0FF
:1038200008002168C8612068C06920F00400216890
:10383000C8612068C069296908432168C86118E027
:103840002946206800F0F8FF2068C06940F4006055
:103850002168C8612068C06920F480602168C8615F
:103860002068C069296940EA01202168C86100E038
:1038700000BF00BF00BF002084F83C0000BF00BFB5
:103880008BE710B504460CB9012010BD94F83D003B
:1038900028B9002084F83C00204600F025F80220DA
:1038A00084F83D00211D206800F0B2FE012084F85C
:1038B000460000BF84F83E0001213F200155402012
:1038C00001554120015500BF00BF012084F842008E
:1038D00043200155442001554520015500BF0120DA
:1038E00084F83D000020D0E77047704705490988FB
:1038F000491C044A118011460988642901D100211C
:1039000011807047A2000020704700BFFEE7000052
:1039100000B585B00020019002900390049000BF94
:103920002048806940F010001E498861084680697F
:1039300000F01000009000BF00BF00BF0846806983
:1039400040F0200088610846806900F02000009067
:1039500000BF00BF00BF0846806940F004008861D6
:103960000846806900F00400009000BF00BF00BF5F
:103970000846806940F0080088610846806900F0C8
:103980000800009000BF00BF40F6034001900020F7
:1039900002900120039001A90348FEF74BFD05B0FA
:1039A00000BD000000100240000C014010B50446AC
:1039B00014B101202D4908702C480078002838D017
:1039C0004FF480612A48FEF7D5FE78B14FF40061CC
:1039D0002748FEF7CFFE48B101212548FEF7CAFE71
:1039E00020B102212248FEF7C5FE10BB00201F496E
:1039F00008704FF480611E48FEF7BCFE08B9012034
:103A000010BD4FF400611A48FEF7B4FE08B9022059
:103A1000F6E701211648FEF7ADFE08B90320EFE7EF
:103A200002211348FEF7A6FE08B90420E8E70020AB
:103A3000E6E74FF480610E48FEF79CFE012813D1A3
:103A4000C1020B48FEF796FE01280DD1012108485E
:103A5000FEF790FE012807D102210548FEF78AFEF5
:103A6000012801D1014908700020C9E700000020A9
:103A7000000C014000B585B0002001900290039039
:103A8000049000BF3148806940F010002F498861E0
:103A90000846806900F01000009000BF00BF00BF22
:103AA0000846806940F0200088610846806900F07F
:103AB0002000009000BF00BF00BF0846806940F0B2
:103AC000040088610846806900F00400009000BF8F
:103AD00000BF00BF0846806940F0080088610846C2
:103AE000806900F00800009000BF00BF00224FF482
:103AF00030411748FEF746FE0122C0211548FEF767
:103B000041FE4FF48040019000200290012003907C
:103B100001A90F48FEF78EFC4FF4304001900120C0
:103B20000290002003900220049001A90848FEF7AB
:103B300081FCC0200190012002900390022004909B
:103B400001A90448FEF776FC05B000BD0010024054
:103B5000000C01400010014010B504464FF48050A5
:103B600008490860402008490861201200F0E0FC84
:103B7000E0B200F0DDFC4FF480500249091F0860FC
:103B800010BD0000140C01400010014070B5064645
:103B90007F231A460021084600F02AF92C2000F065
:103BA00069F9002408E0002503E03046FFF7D4FF60
:103BB0006D1C802DF9D3641C802CF4D370BD10B51E
:103BC000FFF758FF00F00CF9112000F053F97820AE
:103BD00000F0ECFFB12000F04DF9012000F034F9C5
:103BE0002C2000F031F92D2000F02EF9B22000F049
:103BF00041F9012000F028F92C2000F025F92D20B2
:103C000000F022F9B32000F035F9012000F01CF992
:103C10002C2000F019F92D2000F016F9012000F0F9
:103C200013F92C2000F010F92D2000F00DF9B4202C
:103C300000F020F9072000F007F9C02000F01AF981
:103C4000A22000F001F9022000F0FEF8842000F02C
:103C5000FBF8C12000F00EF9C52000F0F5F8C220F5
:103C600000F008F90A2000F0EFF8002000F0ECF86E
:103C7000C32000F0FFF88A2000F0E6F82A2000F0C8
:103C8000E3F8C42000F0F6F88A2000F0DDF8EE201A
:103C900000F0DAF8C52000F0EDF80E2000F0D4F8BE
:103CA000362000F0E7F8C82000F0CEF8E02000F061
:103CB000E1F80F2000F0C8F81A2000F0C5F80F2036
:103CC00000F0C2F8182000F0BFF82F2000F0BCF878
:103CD000282000F0B9F8202000F0B6F8222000F0EB
:103CE000B3F81F2000F0B0F81B2000F0ADF823203F
:103CF00000F0AAF8372000F0A7F8002000F0A4F8A0
:103D0000072000F0A1F8022000F09EF8102000F03B
:103D10009BF8E12000F0AEF80F2000F095F81B2092
:103D200000F092F80F2000F08FF8172000F08CF8C8
:103D3000332000F089F82C2000F086F8292000F0CC
:103D400083F82E2000F080F8302000F07DF830203D
:103D500000F07AF8392000F077F83F2000F074F88E
:103D6000002000F071F8072000F06EF8032000F04A
:103D70006BF8102000F068F82A2000F07BF8002093
:103D800000F062F8002000F05FF8002000F05CF81E
:103D90007F2000F059F82B2000F06CF8002000F094
:103DA00053F8002000F050F8002000F04DF89F205C
:103DB00000F04AF8F02000F05DF8012000F044F82F
:103DC000F62000F057F8002000F03EF83A2000F00E
:103DD00051F8052000F038F8292000F04BF810BD0C
:103DE00010B5642000F0E2FE322000F0DFFE10BDCE
:103DF000F0B504460D4616461F462A2000F03AF854
:103E0000002000F021F8A11CC8B200F01DF800202D
:103E100000F01AF8B11CC8B200F016F82B2000F020
:103E200029F8002000F010F8E91CC8B200F00CF8E6
:103E3000002000F009F8F91CC8B200F005F82C20A9
:103E400000F018F8F0BD000010B504464FF48050A3
:103E500006490860402006490861204600F068FBDA
:103E60004FF480500149091F086010BD140C014037
:103E70000010014010B504464FF480500649086018
:103E8000402006494861204600F052FB4FF4805024
:103E90000149091F086010BD140C014000100140C9
:103EA0000EB500200090019002902348234908603D
:103EB00081152248816001210173002101754FF4B1
:103EC0006021C16100201D49486004211B48016137
:103ED000FDF7B0FD08B1FDF780FB00200090012048
:103EE0000190029069461548FDF7F0FC08B1FDF716
:103EF00074FB012000900220019069460F48FDF7F5
:103F0000E5FC08B1FDF769FB022000900320019059
:103F100069460A48FDF7DAFC08B1FDF75EFB0320AD
:103F200000900420019069460448FDF7CFFC08B1D9
:103F3000FDF753FB0EBD00000024014000010020EE
:103F40001CB50020009001900C480D4908600846FF
:103F5000FDF771FF08B1FDF740FB002000900190D4
:103F6000002269460648FDF72DFF08B1FDF735FB35
:103F700000210348FDF7C2FF1CBD00000074004093
:103F80007401002008B500BF0648406940F00100F8
:103F9000044948610846406900F00100009000BFF4
:103FA00000BF08BD001002400FB500200090019036
:103FB000029003900FBD000000B58DB00020099065
:103FC0000A900B900C90079008901C216846FCF713
:103FD00041FA22482249086042F2CF00486000219D
:103FE0001F48816040F2F311C160002101618161CD
:103FF000FFF7AEF908B1FDF7F0FA4FF480500990E1
:1040000009A91748FFF742FA08B1FDF7E6FA144884
:10401000FFF737FC08B1FDF7E0FA002007900890A1
:1040200007A90F48FFF746F908B1FDF7D6FA602057
:1040300000900020019002900490002269460848F8
:10404000FFF7A1FB08B1FDF7C8FA0548FFF780F9B3
:104050000348FFF76BFB0DB000BD000000040040FB
:104060008801002000BFFEE708B53A480078012823
:104070006FD139480088032190FBF1F201FB120057
:10408000002866D13548007802280FD1344A354BD4
:10409000354903C901F000F91FD2344A344B324983
:1040A00003C900F0ADFE304A03C216E02B48007889
:1040B000042812D1002213462B4903C901F026FA25
:1040C00008D22A4A2A4B284903C901F055FA264A40
:1040D00003C202E0002027490880274827A10CC816
:1040E0002A48FCF7A3F829484EF67D731F222021A9
:1040F00000900020FDF784FA1E48028824A123487E
:10410000FCF794F821484EF67D731F223021009071
:104110000020FDF775FA214821A10CC81B48FCF7C7
:1041200085F81A484EF67D731F224021009000202A
:10413000FDF766FA0C481EA10CC81448FCF776F887
:1041400012484EF67D731F22502100900020FDF78B
:1041500057FA08BD99000020A20000209800002016
:10416000295C8FC2F528F03F880000207B14AE4701
:10417000E17A843F70000020180000204441432071
:104180005345543A25352E3033665600BE00002084
:10419000444143204E4F573A2534640068000020C4
:1041A00041444320494E203A25352E30336656008F
:1041B00043435F544147203A25352E303266410053
:1041C0002DE9FC414348007802287DD1424800880F
:1041D000032190FBF1F201FB1200002877D13F4848
:1041E000007802280BD13E48006843F698218842A7
:1041F0001FD23B4800680A303949086019E0374847
:104200000078042815D1364800680F280ED93448A4
:10421000006801F02EF806460022324B01F0ACF99E
:10422000044600F0F9FF2E49086002E00A202C49FC
:1042300008602B482CA102682E48FBF7F7FF0020EE
:104240002C494EF67D731F22CDE900105021FDF759
:10425000D7F9294829A10CC82648FBF7E7FF2548CC
:104260004EF67D731F22602100900020FDF7C8F9F3
:10427000264827A10CC81F48FBF7D8FF1D484EF65B
:104280007D731F22402100900020FDF7B9F92448DA
:1042900024A10CC81748FBF7C9FF16484EF67D73DA
:1042A0001F22202100900020FDF7AAF92148028852
:1042B00021A11048FBF7BAFF0E484EF67D731F226E
:1042C00030210090002000E001E0FDF799F9BDE801
:1042D000FC81000099000020A2000020980000202E
:1042E0009C0000200000244043525F52203A2530B9
:1042F00036640000BE0000209000002043525F4959
:10430000203A25352E30336600000000680000207A
:1043100041444320494E203A25352E30336656001D
:1043200028000020444143205345543A25352E307F
:104330003266560072000020444143204E4F573AE7
:104340002534640008B54D48007803287ED14C48D8
:104350000088032190FBF1F201FB12000028F5D147
:104360004848007802280FD10022474B474903C92B
:1043700000F092FF21D2464A464B444903C900F05F
:104380003FFD424A03C218E03E480078042814D199
:104390003F4A404B3D4903C901F0B8F808D23C4AB6
:1043A0003C4B3A4903C901F0E7F8384A03C204E03C
:1043B00037493948354AC2E90010344903C900F089
:1043C000EDFC36490860314835A10CC83848FBF788
:1043D0002DFF37484EF67D731F225021009000209C
:1043E000FDF70EF9334903C900F0D8FC2B490860EA
:1043F000304831A10CC82E48FBF718FF2C484EF668
:104400007D731F22602100900020FDF7F9F82E49EE
:1044100003C900F0C3FC214908602B482BA10CC83C
:104420002348FBF703FF22484EF67D731F224021ED
:1044300000900020FDF7E4F8284829A10CC81C488A
:10444000FBF7F4FE1A484EF67D7300E014E01F22DD
:10445000202100900020FDF7D3F82548028825A1EF
:104460001348FBF7E3FE12484EF67D731F223021FE
:1044700000900020FDF7C4F808BD0000990000205E
:10448000A20000209800002000003E4048000020CC
:104490009A9999999999C93F9999B93F080000202B
:1044A00043575F50203A25352E30326657000000C2
:1044B000BE0000205000002043575F49203A2535B8
:1044C0002E30336641000000680000204144432044
:1044D000494E203A25352E303366560040000020E4
:1044E000444143205345543A25352E303366560017
:1044F00074000020444143204E4F573A2534640055
:1045000000BFFEE77047000008B508490968C90800
:104510004FF47A72B1FBF2F14143009100BF00BF4A
:1045200000994A1E00920029F9D108BDB000002070
:104530000021082117E000F0800222B14FF4004270
:104540000A4B1A6004E04FF40042084B1B1D1A602E
:104550004FF40052054B1B1D1A601B1F1A604206C8
:10456000100E4A1ED1B20029E5DC7047100C014044
:10457000704710B5FEF712F910BD00B595B02821AF
:104580000BA8FBF767FF142106A8FBF763FF1821B0
:104590006846FBF75FFF01200B9000040C900020A1
:1045A0000D9001200F9002201290C10313914FF43F
:1045B000E01114910BA8FEF71BFC08B1FDF70DF8F4
:1045C0000F20069002200790002008904FF4806092
:1045D000099000200A90022106A8FEF7E3FA08B12C
:1045E000FCF7FBFF02200090800302906846FEF774
:1045F00041FA08B1FCF7F1FF15B000BD70470000AB
:1046000010B50248FEF7C7FF10BD0000880100206A
:1046100010B50268204B98420ED0204B98420BD028
:10462000B0F1804F08D01E4B984205D01D4B9842E8
:1046300002D01D4B984203D122F070024B681A43FE
:10464000154B98420ED0154B98420BD0B0F1804FCD
:1046500008D0134B984205D0124B984202D0124B0F
:10466000984203D122F44072CB681A4322F08003AF
:104670004C6943EA040202608B68C3620B68836280
:10468000054B984202D0054B984201D10B69036358
:104690000123436110BD0000002C014000340140A3
:1046A0000004004000080040000C004030B50C46FB
:1046B000816821F47F4142EA032525432943816033
:1046C00030BD0A46816821F0700142F007031943AA
:1046D0008160704730B5056A25F001050562026A00
:1046E0004368846924F0700424F003040D682C43AB
:1046F00022F002028D682A43104DA84200D103E047
:104700000F4DA84206D100BF22F00802CD682A430F
:1047100022F00402094DA84202D0094DA84207D157
:1047200023F4807323F400734D692B438D692B436D
:10473000436084614D684563026230BD002C0140D6
:104740000034014030B5056A25F010050562026AA3
:104750004368846924F4E04424F440740D6844EA16
:10476000052422F020028D6842EA0512124DA8426B
:1047700000D103E0114DA84207D100BF22F0800212
:10478000CD6842EA051222F040020B4DA84202D049
:104790000A4DA84209D123F4806323F400634D69D4
:1047A00043EA85038D6943EA8503436084614D686C
:1047B0008563026230BD0000002C014000340140DE
:1047C00030B5056A25F480750562026A4368C469DC
:1047D00024F0700424F003040D682C4322F40072CA
:1047E0008D6842EA0522124DA84200D103E0114D26
:1047F000A84207D100BF22F40062CD6842EA052238
:1048000022F480620A4DA84202D00A4DA84209D182
:1048100023F4805323F400534D6943EA05138D6953
:1048200043EA05134360C4614D68C563026230BD4D
:10483000002C01400034014030B5056A25F4805554
:104840000562036A4468C26922F4E04222F44072BD
:104850000D6842EA052223F400538D6843EA0533CC
:10486000084DA84202D0084DA84204D124F4804447
:104870004D6944EA85144460C2614D680564036271
:1048800030BD0000002C01400034014030B50B4623
:104890001446026A056A25F001050562816921F066
:1048A000F00141EA041122F00A021A438161026216
:1048B00030BD30B50B461446056A25F0100505627B
:1048C0008169026A21F4704141EA043122F0A002B8
:1048D00042EA03128161026230BD00002DE9F0411D
:1048E000754800880A2190FBF1F201FB12000028B4
:1048F0005AD101217148FCF773FE044600F0B9FC5F
:104900006F4A03C26E4903C900F048FA804600F0BE
:104910001DFF06464FF066326A4B00F0F9FC044674
:10492000694A6A4B00F0F4FC694A03C20022694BF1
:10493000674903C900F0EAFD04D20122510266482A
:10494000FDF720FF6548007801282ED164480CC887
:104950004FF06630634900F0DBFC06464FF033321F
:10496000614B00F04DFA044600F056FC5F490880A8
:1049700008460388002211465D48FDF7A9FA002188
:104980005B48FDF750FA5B4908800846008800F054
:10499000CBFF064600F0DAFE04464FF06632494B84
:1049A00000F0B6FC544A03C284E04C480078022868
:1049B00043D152480388002211464D48FDF788FA3A
:1049C00000214B48FDF72FFA044600F052FC4C4AF8
:1049D00003C24B4903C900F0E1F9064600F0B6FEF8
:1049E00004464FF06632374B00F092FC454A03C252
:1049F0004548006800F098FF0546354903C900F0B6
:104A0000CDF90646294600F0CDFE044600F09EFE94
:104A10003E4A03C23D480CC84FF06630314900F0B1
:104A200077FC06464FF033322F4B00F0E9F904468D
:104A300000F0F2FB314908803CE028480078032868
:104A400038D133480388002211462948FDF740FA3F
:104A500000212748FDF7E7F9044600F00AFC2D4A3B
:104A600003C22C4903C900F099F9064600F06EFE16
:104A700004464FF06632134B00F04AFC264A03C24C
:104A8000134826490CC803C900F06EFA244A03C231
:104A900023480CC84FF06630124900F039FC064636
:104AA0004FF03332104B00F0ABF9044600F0B4FB8A
:104AB00017490880BDE8F081A2000020B400002062
:104AC0001000002066664A3F3108AC1C5A6426403C
:104AD0006800002000003E400010014099000020C6
:104AE0008800002066B49F4033F3524070000020DD
:104AF00074010020600000201800002072000020D7
:104B000020000020280000209C00002090000020B1
:104B100074000020380000204000002048000020E1
:104B20005000002000BFFEE7490050EAC12018BF36
:104B300004204A0D18BF40F0010040F2FF72B2EBB2
:104B4000515F08BF40F00200012808BF05207047F0
:104B500002480068C0F30220704700000CED00E03E
:104B600010B5002804DB0A07130E054A135406E0AB
:104B70000A07140E034A00F00F031B1FD45410BD84
:104B800000E400E018ED00E030380A2801D20120EE
:104B9000704700207047000010B504460420FEF75F
:104BA00059FB0148046010BD0400002030B50446E4
:104BB000002504E04FF47A7000F004F86D1CA54263
:104BC000F8D330BD70B5034600224FF0E02675697A
:104BD0000D4E366803FB06F44FF0E026B16910E095
:104BE0004FF0E026B06988420BD0884202D20E1AFC
:104BF000324402E02E1A0E4432440146A24200D34F
:104C000000E0EDE700BF70BD0400002008B5FDF72F
:104C1000D1FDFFF7B2FC4548FEF7F0FBFFF7C4F902
:104C2000FFF7B0F9FFF73CF9FFF78AF9FFF7C4F98E
:104C30003F48FCF7FBFE3E48FCF7BCFD04223D4923
:104C40003B48FCF7FFFFFEF7BAFF4820FFF7A4FF41
:104C500044F20820FEF79AFFFEF75AFE3648038812
:104C6000002211463548FDF733F900213348FDF79E
:104C700045F95AE0FFF732FE31A04EF67D731F2250
:104C8000002100900846FCF7BBFC31A04EF67D7376
:104C90001F22102100900020FCF7B2FC3149088847
:104CA00000EBD0714910A0EB410121B90020FEF7C3
:104CB0007DFE2D4908702C48007801280FD144F260
:104CC0000820FEF763FF29480078401C2749087038
:104CD00008460078032815DD0320087012E02248FA
:104CE000007803280ED144F20820FEF74FFF1F483A
:104CF0000078401E1D49087008460078012801DA36
:104D00000120087019480078012804D0022805D035
:104D1000032809D105E0FFF7A7F900BFFFF750FA14
:104D200000BFFFF70FFB00BF00BFA3E78801002013
:104D300000010020B4000020700000207401002059
:104D40005331323A2B20200920202053393A2D00AC
:104D50005331313A4D4F442B5331303A4D4F442D5E
:104D600000000000A2000020980000209900002010
:104D700010B500290AD00878002807D005487844E3
:104D8000FBF746FF002801D0002010BD0248784400
:104D900010BD00001A2600001226000021F000427B
:104DA000A2F16052B2F5801F01F0004328BFD2F19A
:104DB0007F6C0BD95FEA001C43EAC20242EB5070E1
:104DC00018BF704728BF20F001007047B2F5801F60
:104DD000BCBF184670474FEA410C1CF5001F02D2B9
:104DE000084600F0FABD70B500F03CFB00000089F9
:104DF000FFF7F6BF4FF00040A0F5800070470000BD
:104E000010B591EA030F48BF83F0004300F1BC8363
:104E1000841A71EB030C05D2121943EB0C03001B2F
:104E200061EB0C01DFF824E14FEA1154A4EB135CB1
:104E30001EEA430F18BF9EEA445F73D023EA0E03B5
:104E4000DCF1200E21EA045143F4801332D322FA1C
:104E50000CFE10EB0E0023FA0CFE41EB0E01CCF120
:104E6000200E03FA0EFE10EB0E0051F10001B1F519
:104E7000801FCCF1200E32D201EB045112FA0EF257
:104E8000BDE8104058BF7047401C38BF5FEA42027F
:104E900018BF7047002814BF20F0010041F1000145
:104EA0004FEA410313F5001F38BF7047A1F1C0411D
:104EB00000F026BB012A43EB0302ACF1200CDCF12D
:104EC0001F0E32BF4FF0000E23FA0CF310EB03005D
:104ED00041EB0451B4EB115FD0D0A1EB045101F5CB
:104EE000801149085FEA300001EB04510ED350F104
:104EF000000038BF12FA0EFE08D1BDE81040C9E725
:104F0000401C38BF5FEA4202CAD1C3E7BDE8104087
:104F10004FEA410313F5001F38BF7047A1F1C041AC
:104F200000F0EEBA9EEA445F08D011EA5E0FBDE8D9
:104F3000104004BF01F0004100207047BDE8104060
:104F400070B500F08FFA00BF64FBBE3E0000E0FFCA
:104F5000491058BFC1F140415B1058BFC3F14043F5
:104F60008B42EFF3008070472DE9C04130B4DFF889
:104F7000A0C23CEA111418BF3CEA131400F0EC8004
:104F800081EA03051CEA111444EAD57418BF1CEA2F
:104F9000131500F0C780A4EB05044FF0004545EA67
:104FA000C12145EAC32341EA505143EA525304F177
:104FB0007F74994204F500344FEAC0204FEAC222C0
:104FC00008BF904200F09C804FEA13650FF2401634
:104FD000765D4FEA134506FB05F7C7F1807706FBC0
:104FE00007F74FEAD737A7FB03687642C8F5803842
:104FF000A7FB06CE38BFA8F1010807FB08E64FF073
:10500000000EA6FB028CE6FB03CEDCF1000CCEF119
:10501000004E38BFAEF1010EA6FB0C584FF0000752
:105020004FF00005E6FB0E87A1FB08C6A0FB07CEEC
:1050300016EB0E0645F10005E1FB076515F1E04EA4
:105040007EBFA4F580345FEA46066D4116F1800705
:1050500045F100054FEA17274FEA066647EA05675C
:10506000A6F1DE46B6F1805F4FEA15251FD9384616
:1050700024F0010C05EBC471BCF1FE6F01EB0C11C7
:1050800002D8F0BCBDE8008124425CBF01F5801E5F
:105090009EEAC47F02D4F0BCBDE80081244238D42B
:1050A000F0BCA1F1C041BDE8004100F029BA4FEACF
:1050B000D22242EA43524FEAD323A7FB02864FEAA9
:1050C000D02040EA415007FB03661EEA0E0F4FEA6C
:1050D000D12105FB026658BFA6EB0056B6EB005681
:1050E0004FEA520E4EEAC37E18EB0E0E56EB530EED
:1050F000BDD518EB02085E417F1C55F10005B6E7EF
:105100004FF480154FF000074FF000064FF00008F5
:10511000ADE7F0BC4FF0000001F1C04101F00041EB
:10512000BDE8008111EA0C1F0CEA131500D00CE059
:1051300013EA0C1F00F025804FF00000F0BC81EA5C
:10514000030101F00041BDE80081F0BCBDE8004171
:1051500081EA030100F0D4B9F0BCBDE8004170B5AC
:1051600000F080F9097EFC3E00F007B881EA0301F7
:105170004FF0000001F00041704781EA030100F0A8
:10518000BFB9F0BCBDE800414FF0000021497047B5
:10519000FFFDFBF9F7F5F4F2F0EEEDEBE9E8E6E4FC
:1051A000E3E1E0DEDDDBDAD8D7D5D4D3D1D0CFCD83
:1051B000CCCBCAC8C7C6C5C4C2C1C0BFBEBDBCBBBC
:1051C000BAB9B8B7B6B5B4B3B2B1B0AFAEADACABB7
:1051D000AAA9A8A8A7A6A5A4A3A3A2A1A09F9F9E91
:1051E0009D9C9C9B9A999998979796959594939343
:1051F000929191908F8F8E8E8D8C8C8B8B8A8989DA
:10520000888887878685858484838382828181805C
:105210000000FF070000F87F4FEA1153A3F58063F9
:10522000D3F11E03A8BFD3F1200C08DB4FF00042DE
:1052300042EAC12252EA505232FA03F07047094260
:105240000BD4102BC4BF0020704703F5787CBCF151
:10525000FF3F05D04FF0FF3070474FF00000704720
:1052600070B500F0FFF800BF49922480002070471D
:10527000F0E7B0FA80F310FA03F10AD0C3F11D038E
:1052800003F580634FEA41504FEA035202EBD1210C
:1052900070474FF00000704751EA030C17D41CF51B
:1052A000801F58BFBCF5801F00F10680994218BFCF
:1052B000704708BF9042704707D711F5801F58BF4D
:1052C00013F5801F19D499427047894270471CF525
:1052D000801F08D5BCF5801FF7D58B4218BF7047DB
:1052E00008BF824270474FF4001C1CEB410F38BFCF
:1052F0001CEB430F01D28B42704770B500F0B2F83F
:10530000922449004FF000514FF08053FFF720BE28
:10531000DFF848C170B51CEA111E1EBF1CEA131548
:105320009EEA0C0F95EA0C0F00F06F8081EA0304EF
:1053300023EA4C134EEAD47E21EA4C1141F4801149
:1053400043F48013AE44A1FB024CA0FB0365AEF115
:105350007F7E361955EB0C05A1FB034C4CF1000385
:10536000A0FB021C16EB0C06654153F10003094239
:1053700018BF46F0010613F4007F0BD14FEA03314A
:105380004FEA0530340341EA155140EA16506FF0F8
:1053900003020AE04FEAC3214FEAC520F40241EAC2
:1053A000555140EA56506FF0020202EB2E4201EBDB
:1053B000025585EACE710AD05FEA440C18BF24F08A
:1053C000004450F1000041F1000120EAD47040F2A5
:1053D000FE7C624500D270BDA84214BF4FF08044ED
:1053E0004FF04044002E08BF0024BEF1806FA8BFDC
:1053F000A1F1C041BDE8704080F282804FF0000012
:1054000001F1C04101F0004170479EEA0C0F0CEA27
:10541000131518BF95EA0C0F06D04FF0000081EA73
:10542000030E0EF0004170BD00F01CF88900013E33
:1054300000F007B800F009B84FEA430C5FEA5C5C83
:1054400008D081EA030100F05BB84FEA410C5FEA43
:105450005C5CF6D14FF00000014970470000FF0787
:105460000000F87F0EF1020E2EF0030E5EF8046BC2
:10547000364205D4012A43EB030515F5001F12D867
:10548000012841EB010C1CF5001F0CD80ED14FEA8E
:10549000D17C15F5001F0CEB4C0C0CF1020C08BF75
:1054A0004CEBD37C04E04FF0080C01E04FEAD37CD6
:1054B0000CEB4C0526FA05F606F00706B6F1040CCF
:1054C00006D20EEB860CBDE870404CF0010C604734
:1054D000DFE80CF0090B02024FF000414FF0000032
:1054E000A1F5002170BD19461046012851EB0104B9
:1054F00018BFD4F5001484BF002001F0004170BD36
:105500000808A0F500114FEA3101704753EA010C79
:1055100017D41CF5801F58BFBCF5801F00F1068012
:105520008B4218BF704708BF8242704707D713F5F8
:10553000801F58BF11F5801F19D48B4270479B42C2
:1055400070471CF5801F08D5BCF5801FF7D5994220
:1055500018BF704708BF904270474FF4001C1CEB07
:10556000430F38BF1CEB410F01D2994270470FB473
:105570000CBC03BCFFF7C1BE10B591EA030F48BFD6
:1055800083F000433FF544AC841A71EB030C07D25F
:1055900012198CF0004C43EB0C03001B61EB0C0167
:1055A000DFF8A4E14FEA1154A4EB135C1EEA430FA9
:1055B00018BF9EEA445F00F0B08023EA6E035242B7
:1055C00021EA0451C3EB6E0338BF5B1EDCF1200EF1
:1055D00025D322FA0CFE10EB0E0043FA0CFE41EB31
:1055E0000E01CCF1200E03FA0EFE10EB0E0051F16D
:1055F0000001CCF1200E29D412FA0EF201EB045175
:10560000BDE8104058BF7047401C1CBFB2F1004FAE
:10561000704700280CBF491C20F00100704712EBB6
:10562000020E43EB030218BF4FF0010E4EEA420296
:10563000ACF1200CDCF11E0E54D943FA0CFE10EB39
:105640000E0051F1FF31CCF11E0ED5D50EF1010E39
:1056500012FA0EFE404141EB010101EB445C5FEAAE
:105660005C5C10D910EBDE7001EB045138BFBEF169
:10567000004FBDE8104018BF704700280CBF491C00
:1056800020F00100704730D24FEAD42C11F5001100
:1056900024F400641BD0B1FA81F20B3AA41AA41EC0
:1056A000D2F12003914030FA03F31943904001EB0B
:1056B000CC71002C01EB0451BDE81040A8BF70472D
:1056C00001F1C0414FF0000001F000417047B0FA15
:1056D00080F310FA03F100D110BDE41A173C48051D
:1056E000C90AE4E701EB045110BD491001EB045174
:1056F000BDE810404FEA300002E04FF00001704773
:105700004A0008BF0042F8D0B2F5001F28BF70471A
:1057100001F000414FF0000070479EEA445F07D05F
:1057200011EA5E0FBDE8104004BF00210020704761
:10573000BDE8104070B5FFF795FE00BF40DFF63EB4
:1057400083F00041104670470000E0FF43004FEA3D
:10575000D30C4FEA3C0C43401FBF40070CF1605193
:1057600013F0FE4F70471CF0006F03D100200CF0C7
:10577000004170470CF0004343EA507010B540EA16
:10578000CC0000F0E4F800BF000000924FEA0001F6
:10579000FFF7B6BE4FF000414FF00000A1F5002129
:1057A000704700004FF47F0C1CEAD0121EBF1CEAA9
:1057B000D11392EA0C0F93EA0C0F00F0858090EA67
:1057C000010F48BF42F4807240F4000C41F4000025
:1057D0002CF07F4120F07F4000B58142A2EB030214
:1057E0000FF2081CACEB504EC0F100009EF800E038
:1057F0004FEA4E0E00FB0EFC38BF49004FEA2C1C4E
:1058000002F5FA020CFB0EF34FEACE1E4FEA112C02
:105810004FEAC1210EEB635E42EB22420EFB0CFC11
:105820004FEA1C5300FB03114FEA112C4FEA0131E0
:105830000EFB0CFC4FEADC4C00FB0C11C14228BFF4
:1058400009184CEB03335DF804EB10EB410143EB1B
:10585000C250B2F57C0F38BF704729D512F0F00F57
:105860001CBF00F1C04000F00040704700818283FF
:105870008485868788898B8C8D8E8F91929395965F
:1058800097999A9C9D9FA0A2A3A5A7A8AAACAEB0E9
:10589000B2B3B5B7B9BCBEC0C2C5C7C9CCCED1D4EE
:1058A000D7D9DCDFE2E6E9ECF0F3F7FAFE0000001E
:1058B0004FEA400C0CF1807CBCF17E4F28BF704752
:1058C000B0F1C04000F089B890EA010F0CEAD113A2
:1058D00048BF42F48072624538BF634507D213F473
:1058E0007F0F16D080EA010000F00040704710B52D
:1058F00000F02DF8097EFC3E00F005B880EA0100BA
:1059000000F00040704780EA010000F0004000F025
:1059100064B812F47F0F04BF0248704780EA0100A8
:1059200000F05BB80000C07FB0FA80F310FA03F219
:10593000C3F19D030AD0D90501EB1220530638BFED
:10594000704700F1010008BF20F0010070470EF120
:10595000020E2EF0030E5EF8044B244204D44FEAEC
:105960004102B2F17F4F11D84FEA4003B3F17F4FAC
:105970000CD80ED14FEAD07CB2F17F4F0CEB4C0C1F
:105980000CF1020C08BF4CEBD17C04E04FF0080C8A
:1059900001E04FEAD17C0CEB4C0324FA03F404F051
:1059A0000704B4F1040C06D20EEB840CBDE81040E1
:1059B0004CF0010C6047DFE80CF0070802024FF0E2
:1059C0000040A0F5800010BD0846420018BFD2F18B
:1059D000807288BF00F0004010BDFF2141EAD05026
:1059E000C0057047FAF792BE0000000000000000FA
:1059F000000000000000040404040404000400008B
:105A000000140A0A00000000000000000000141446
:105A10003F140A3F0A0A000000041E1505060C1474
:105A2000150F0400000012150D0A142C2A12000094
:105A30000000040A0A1E15150936000000020201C2
:105A400000000000000000000020100808080808FE
:105A500008102000000204080808080808040200D2
:105A600000000004150E0E150400000000000404E0
:105A7000041F0404040000000000000000000000F7
:105A80000002020100000000001F000000000000F2
:105A900000000000000000000002000000100808E4
:105AA000080404020202010000000E11111111117C
:105AB000110E00000000040604040404040E00009B
:105AC00000000E1111080402011F000000000E1159
:105AD000100C1010110E00000000080C0A0A091E1C
